:100000000C9462000C948A000C948A000C948A0070
:100010000C948A000C948A000C948A000C9485033A
:100020000C9490030C949B030C9457030C948A003B
:100030000C948A000C948A000C948A000C948A0018
:100040000C94470A0C948A000C94B3060C94FA069C
:100050000C948A000C948A000C948A000C948A00F8
:100060000C9458050C948A0000000000240027001E
:100070002A0000000000250028002B0000000000DE
:1000800023002600290004040404040404040202DA
:100090000202020203030303030301020408102007
:1000A0004080010204081020010204081020000012
:1000B0000007000201000003040600000000000029
:1000C0000000710811241FBECFEFD8E0DEBFCDBF06
:1000D00012E0A0E0B1E0E8ECF7E102C005900D927B
:1000E000AE33B107D9F713E0AEE3B2E001C01D9221
:1000F000AE38B107E1F710E0C4ECD0E004C02297BD
:10010000FE010E94DE0BC23CD107C9F70E94380AEB
:100110000C94E20B0C9400001092420210924302E5
:100120001092440210924502109246021092470229
:10013000109248021092490210923E0210923F0221
:1001400010924002109241020895EF92FF920F9395
:100150001F93CF93DF930E948F0A7B018C018091C4
:10016000420290914302E701C81BD90BC630D1056A
:1001700068F086E693E060E071E00E94220A86E67D
:1001800093E0BE014AE050E00E94A609E0924202DC
:10019000F09243020093440210934502809146027C
:1001A00090914702A0914802B0914902A80197019D
:1001B000281B390B4A0B5B0BDA01C901895E93409E
:1001C000A040B04020F1E0924602F0924702009336
:1001D00048021093490286E693E061E171E00E94D3
:1001E000220A40913E0250913F026091400270917C
:1001F000410286E693E02AE030E00E9492091092E4
:100200003E0210923F0210924002109241028091F1
:100210003E0290913F02A0914002B09141020196AE
:10022000A11DB11D80933E0290933F02A093400216
:10023000B0934102DF91CF911F910F91FF90EF900A
:100240000895E82FF0E0EE0FFF1FE65BFD4F808181
:10025000918108958EE00E94D80A90934B0280937A
:100260004A028091D70282608093D7028FE00E9479
:10027000D80A90934D0280934C028091D8028260FC
:100280008093D80280E10E94D80A90934F02809315
:100290004E028091D90282608093D9020895089518
:1002A000DC018091A202882329F481E08093A202DC
:1002B0008093A3023091A9024091A3029091A802D9
:1002C0002091AB0280E018C0882311F49D9112C0E8
:1002D000903410F4292F0EC0E92FE054E03410F0D0
:1002E000292F07C0F0E0EE5AFD4F8D9180833F5FCC
:1002F0009F5F41E0615081E0662331F73093A902AE
:100300004093A3029093A8022093AB0208950F9309
:100310001F93CF93DF93C2E9D2E000E010E0402FBB
:10032000F801EE0FFF1FEC5AFD4F608171816115DE
:10033000710569F1F801EE5AFD4F82898823B1F108
:10034000288139812115310589F16217730750F42D
:100350008289F901E81BF109F983E883E617F707B9
:1003600078F40CC026173707C8F48289F901E80F22
:10037000F11DF983E8836E177F0710F47983688392
:100380006881798102C079836883842F05C01982CE
:100390001882802F60E070E00E948E040F5F1F4F74
:1003A00022960830110509F0BACF06C088819981DC
:1003B0008617970741F7F2CFDF91CF911F910F91E9
:1003C0000895EF92FF920F931F93CF93DF93809145
:1003D000A202882309F498C08DE061E00E94200BFE
:1003E0008091A302882369F00E948F0A6093A4027F
:1003F0007093A5028093A6029093A7021092A30285
:1004000025C00E948F0A2091A4023091A50240913C
:10041000A6025091A702621B730B840B950B6536E5
:1004200071058105910590F08DE060E00E94200B40
:10043000359908C086E693E069E171E00E94250ADB
:100440000E9452051092A2021092A8028091A90265
:10045000882361F1809153021092530280915202DD
:100460008093DC02C2E9D2E020E030E04AE0D9012A
:10047000AE5ABD4F5A968C915A97882389F01982AB
:1004800018825A968C915A97849FC0011124F901C1
:10049000EE0FFF1FEC5AFD4F918380835A961C92FA
:1004A0002F5F3F4F22962830310509F70E9406053D
:1004B000882351F194E7E92E92E0F92EC0E0D0E0D4
:1004C0008E0109521D4FF801808181FF15C08C2FCC
:1004D0000E942101FE01EE5AFD4F64E070E00E948F
:1004E000930B62A78C2F0E942101F70191838083D7
:1004F000F80180818D7F8083219682E090E0E80E74
:10050000F91EC430D105E1F68091DB0282FF40C0C4
:100510008091A902882389F086E693E065E371E083
:100520000E94220A6091A90286E693E070E04AE008
:1005300050E00E94030A1092A9028091AA02882327
:1005400089F086E693E069E371E00E94220A6091F7
:10055000AA0286E693E070E04AE050E00E94030AB7
:100560001092AA028091AB028823A1F086E693E064
:100570006DE371E00E94220A6091AB0286E693E08F
:1005800070E04AE050E00E94030A1092AB0202C001
:100590001092A902DF91CF911F910F91FF90EF90E0
:1005A000089586E693E06EE471E00E94250A8DE0EE
:1005B00061E00E94FA0A88E50E940E0587E193E057
:1005C0000E94170580E591E00E9412050E94FE043A
:1005D0001092A9021092AA021092A8021092A402EC
:1005E0001092A5021092A6021092A7021092A202E7
:1005F0001092A3021092AB02E2E5F2E0119282E0C7
:10060000E239F807D9F7A2E9B2E080E090E022E30E
:100610001D921D92FC01EE5AFD4F228B01968830EF
:100620009105B1F78091DC02809352020895809188
:10063000A202882331F484EF91E061E00E94370543
:1006400008952091A802203450F4283110F5822F0B
:1006500090E083519E4F61E00E9437051AC0822FBF
:1006600080548034D8F4225490E0203168F48E7F96
:10067000907080579D4F62E00E941C058091A802F7
:100680008F5F8093A80205C08E5A9D4F61E00E9443
:100690001C058091A8028F5F8093A80281E080935F
:1006A000A3028091AA028F5F8093AA0208951F92ED
:1006B0000F920FB60F9211248F938091AC0280930A
:1006C000B3008091B3008111289A8091AD0280938C
:1006D000B4008091B40081115F9A1092B20085E05D
:1006E0008093B1008091DD0280FF04C08091DD0223
:1006F000826003C08091DD0281608093DD028F9172
:100700000F900FBE0F901F9018951F920F920FB66B
:100710000F92112428980F900FBE0F901F901895DC
:100720001F920F920FB60F9211245F980F900FBE79
:100730000F901F9018951F920F920FB60F921124D1
:100740001092B1000F900FBE0F901F9018958091DE
:10075000DD0280FF16C08091DD028E7F8093DD0276
:100760000E9487018091DD0281FF0BC086E693E045
:100770006AE571E00E94250A8091DD028D7F8093F9
:10078000DD020895CF93DF93BC01009741F181E032
:10079000643F780718F4C4EFD1E007C0EB0189E0AB
:1007A000653C780710F0C4ECD9E0CE0123E09695C3
:1007B00087952A95E1F78093AD028091DB0281FF56
:1007C00010C086E693E064E771E00E94220A86E6A4
:1007D00093E0BE014AE050E00E94A60902C01092D8
:1007E000AD02DF91CF910895CF93DF93BC010097C5
:1007F00041F181E0643F780718F4C4EFD1E007C00D
:10080000EB0189E0653C780710F0C4ECD9E0CE013B
:1008100033E0969587953A95E1F78093AC02809105
:10082000DB0281FF10C086E693E06EE771E00E9474
:10083000220A86E693E0BE014AE050E00E94A60943
:1008400002C01092AC02DF91CF910895CF93DF9355
:10085000BC01009739F181E0643F780718F4C4EFD8
:10086000D1E007C0EB0189E0653C780710F0C4ECEB
:10087000D9E0CE01880F991F90938B0080938A0056
:100880008091DB0281FF14C086E693E068E871E0A6
:100890000E94220A86E693E0BE014AE050E00E94F0
:1008A000A60906C080E49CE990938B0080938A009F
:1008B000DF91CF910895CF93DF93BC01009739F179
:1008C00081E0643F780718F4C4EFD1E007C0EB0182
:1008D00089E0653C780710F0C4ECD9E0CE01880FC0
:1008E000991F90938900809388008091DB0281FF9B
:1008F00012C086E693E062E971E00E94220A86E671
:1009000093E0BE014AE050E00E94A60904C01092A4
:10091000890010928800DF91CF910895813059F0BD
:10092000813028F0823059F0833081F40CC0CB0143
:100930000E945B040895CB010E9426040895CB0118
:100940000E94F4030895CB010E94C203089586E635
:1009500093E06CE971E00E94250A89E060E00E9462
:10096000200B89E061E00E94FA0A8AE060E00E94C0
:10097000200B8AE061E00E94FA0A88E060E00E94B1
:10098000200B88E061E00E94FA0A87E060E00E94A4
:10099000200B87E061E00E94FA0A10928500109215
:1009A000840080EC8093820082EA809380008AE158
:1009B0008093810080E090E00E945B0480E090E002
:1009C0000E94260480E090E00E94F40380E090E022
:1009D0000E94C20380E49CE9909387008093860084
:1009E000EFE6F0E080818062808383E08093B00056
:1009F0001092B10087E08093700008951092AE02CB
:100A0000449A459A85E48093BC0008958091AE0293
:100A100090E0882309F491E0892F0895880F80934E
:100A2000BA0008959093C1028093C00208959093F4
:100A3000C5028093C4020895482F613110F081E00F
:100A400008958091AE02843011F082E008956093A1
:100A5000C302A6ECB2E0842F9C01F90102C081918F
:100A60008D938E2F841B8617D0F380E00895482F36
:100A7000613110F081E008958091AE02843011F070
:100A800082E008956093C302A6ECB2E0842F9C013B
:100A9000F90102C081918D938E2F841B8617D0F3AC
:100AA00080E0089585EC8093BC001092AE0208951A
:100AB0001F920F920FB60F9211242F933F934F93D3
:100AC0005F936F937F938F939F93AF93BF93EF93B6
:100AD000FF938091B90090E0887F907088399105EC
:100AE00009F4A4C089399105ECF488379105D1F156
:100AF000893791055CF488369105A1F1803791051D
:100B000089F18036910509F097C02CC0883891058D
:100B100009F48CC08039910559F18038910509F0AC
:100B20008BC026C0883B910509F45DC0893B9105C7
:100B300064F4883A910509F441C0803B9105F1F1D4
:100B4000803A910509F078C025C0883C910509F4E8
:100B500071C0883F910509F476C0803C910509F089
:100B60006BC068C083E08093AE021092AF025CC09D
:100B70008091AF02803108F059C08091AF0290910E
:100B8000BB00E82FF0E0E055FD4F90838F5F80932E
:100B9000AF024AC08091AF02803130F4E091AF02E1
:100BA000F0E0E055FD4F10826091AF02E091C0028D
:100BB000F091C10280EB92E009953CC084E0809303
:100BC000AE021092C2021092C302E091C402F091F0
:100BD000C50209958091C302882329F481E080939E
:100BE000C3021092C6029091C202E92FF0E0EA53CC
:100BF000FD4F80818093BB009F5F9093C2029091D4
:100C0000C2028091C302981748F01092C20210925B
:100C1000C302E091C402F091C50209959091C2020D
:100C20008091C302981710F485EC01C085E8809389
:100C3000BC0009C085EC03C01092D60285ED8093FC
:100C4000BC001092AE02FF91EF91BF91AF919F91C6
:100C50008F917F916F915F914F913F912F910F9065
:100C60000FBE0F901F9018950E94A7030E942A01A3
:100C70000E94E1018091DB0284FF02C00E944F01CB
:100C80008091DB0286FF02C00E94A50008951092A9
:100C9000DB021092DD0286E693E040E052EC61E078
:100CA00070E00E94430786E693E06DEA71E00E94DF
:100CB000250A86E693E06EEA71E00E94220A86E643
:100CC00093E06AEC71E00E94250A86E693E060ED0D
:100CD00071E00E94250AF999FECF81E090E092BD73
:100CE00081BDF89A80B58093DB02F999FECF82E04E
:100CF00090E092BD81BDF89A80B58093DC0280912E
:100D0000DB0281608093DB0286E693E06EED71E0AA
:100D10000E94250AF999FECF2091DB02F999FECFB6
:100D20001FBA81E090E092BD81BD20BD0FB6F8945E
:100D3000FA9AF99A0FBE2091DC02F999FECF1FBAF8
:100D400082E090E092BD81BD20BD0FB6F894FA9A82
:100D5000F99A0FBE0E94A7040E94D10278940E94C3
:100D60008C00089508951F920F920FB60F921124D0
:100D70002F933F934F938F939F93EF93FF934091C4
:100D8000C60020911E0330911F032F5F3F4F2F732A
:100D9000307080912003909121032817390759F072
:100DA000E0911E03F0911F03E252FD4F4083309308
:100DB0001F0320931E03FF91EF919F918F914F91FD
:100DC0003F912F910F900FBE0F901F901895E091BB
:100DD0007203F0917303E05CFF4F81919191208148
:100DE0003181821B930B8F739070892B11F00E94BD
:100DF000B20608951F920F920FB60F9211242F93EF
:100E00003F934F935F936F937F938F939F93AF9392
:100E1000BF93EF93FF93209162033091630380911E
:100E20006403909165032817390731F48091C1005C
:100E30008F7D8093C10016C0E0916403F09165033B
:100E4000EE5DFC4F408180916403909165030196B3
:100E500060E470E00E94930B9093650380936403B9
:100E60004093C600FF91EF91BF91AF919F918F91F9
:100E70007F916F915F914F913F912F910F900FBE96
:100E80000F901F901895AF92BF92DF92EF92FF9252
:100E90000F931F93CF93DF93EC017A018B01DD2435
:100EA000403081EE580780E0680780E0780711F055
:100EB000DD24D39491E0A92EB12CEC89FD89DD20AD
:100EC00069F0C5010E8C02C0880F991F0A94E2F7E1
:100ED000808360E079E08DE390E005C0108260E8F7
:100EE00074E88EE190E0A80197010E94A60B2150C2
:100EF000304040405040569547953795279580E1C2
:100F00002030380720F0DD2011F0DD24D6CFE8892D
:100F1000F9893083EA89FB892083EE89FF89408142
:100F200021E030E0C9010A8C02C0880F991F0A94A1
:100F3000E2F7482B4083EE89FF894081C9010B8C81
:100F400002C0880F991F0A94E2F7482B4083EE896C
:100F5000FF894081C9010C8C02C0880F991F0A9437
:100F6000E2F7482B4083EE89FF8980810D8C02C017
:100F7000220F331F0A94E2F7209528232083DF9164
:100F8000CF911F910F91FF90EF90DF90BF90AF90A6
:100F90000895DC011C96ED91FC911D97E05CFF4FDC
:100FA0002191319180819181281B390B2F733070F1
:100FB000C9010895DC011C96ED91FC911D97E05C40
:100FC000FF4F20813181E054F040DF01AE5BBF4F25
:100FD0008D919C9111972817390719F42FEF3FEF46
:100FE00007C08D919C91E80FF91F8081282F30E078
:100FF000C9010895DC011C96ED91FC911D97E05C00
:10100000FF4F20813181E054F040DF01AE5BBF4FE4
:101010008D919C9111972817390719F42FEF3FEF05
:1010200010C08D919C911197E80FF91F20818D912F
:101030009C91119701968F73907011969C938E934B
:1010400030E0C9010895FC0186859785DC01A05C2C
:10105000BF4FFC01EE5BFF4F2D913C9111978081BA
:10106000918128173907C1F70895CF93DF93EC01D9
:10107000462FEE85FF85E05CFF4F80819181E05433
:10108000F040019660E470E00E94930B9C01DF0148
:10109000AE5BBF4F8D919C91119728173907D1F303
:1010A000E05CFF4F80819181E054F040E80FF91F30
:1010B0004083EE85FF85E05CFF4F31832083EE891E
:1010C000FF89208181E090E00D8C02C0880F991F7C
:1010D0000A94E2F7282B208381E090E0DF91CF9102
:1010E0000895109269031092680388EE93E0A0E0DF
:1010F000B0E080936A0390936B03A0936C03B0936A
:101100006D0381E392E090936703809366038EED15
:1011100092E0909373038093720382E293E0909342
:1011200075038093740385EC90E09093770380932C
:10113000760384EC90E0909379038093780380ECBD
:1011400090E090937B0380937A0381EC90E09093FE
:101150007D0380937C0386EC90E090937F038093E3
:101160007E0384E08093800383E08093810387E0A3
:101170008093820385E08093830381E080938403DE
:101180000895CF92DF92EF92FF920F931F93CF9328
:10119000DF937C016B018A01C0E0D0E00FC0D60173
:1011A0006D916D01D701ED91FC910190F081E02DE1
:1011B000C7010995C80FD91F01501040011511052D
:1011C00071F7CE01DF91CF911F910F91FF90EF90BA
:1011D000DF90CF900895EF92FF920F931F938C01B1
:1011E000DC01ED91FC910190F081E02D6DE009951D
:1011F0007C01D801ED91FC910190F081E02DC801B6
:101200006AE009959C012E0D3F1DC9011F910F91A8
:10121000FF90EF900895CF93DF93DB010D900020B6
:10122000E9F71197A61BB70BEC01E881F981028061
:10123000F381E02DAD010995DF91CF9108954F9293
:101240005F927F928F929F92AF92BF92CF92DF92E6
:10125000EF92FF920F931F93DF93CF93CDB7DEB73B
:10126000A1970FB6F894DEBF0FBECDBF2C01742E30
:10127000CB01223008F42AE019A231E2C32ED12C8E
:10128000CC0EDD1E822E9924AA24BB24672D752F37
:10129000A50194010E94A60B79018A01C801B7013A
:1012A000A50194010E94740B472D461B0894C108A8
:1012B000D1084A3014F4405D01C0495CF601408316
:1012C000E114F1040105110521F07E2C5F2DC80108
:1012D000DDCFC201B6010E940B09A1960FB6F894AA
:1012E000DEBF0FBECDBFCF91DF911F910F91FF9059
:1012F000EF90DF90CF90BF90AF909F908F907F90B6
:101300005F904F900895DC012115310541F4ED9176
:10131000FC910190F081E02D642F099508950E94C1
:101320001F090895EF92FF920F931F937C010E9473
:1013300083098C01C7010E94EB089C01200F311F1B
:10134000C9011F910F91FF90EF900895CF92DF9206
:10135000EF92FF920F931F936C017B019A0100E0C3
:1013600010E0B801A7010E9483098C01C6010E9408
:10137000EB08080F191FC8011F910F91FF90EF9004
:10138000DF90CF900895CF92DF92EF92FF920F936C
:101390001F93CF93DF93EC016A017B012115310587
:1013A00041F4E881F9810190F081E02D642F0995E5
:1013B0001FC02A303105D1F477FF17C0E881F981C9
:1013C0000190F081E02D6DE209958C0144275527AD
:1013D000BA014C195D096E097F09CE012AE00E940D
:1013E0001F099801280F391F04C02AE00E941F0915
:1013F0009C01C901DF91CF911F910F91FF90EF9058
:10140000DF90CF900895CF92DF92EF92FF920F93EB
:101410001F936C017B019A010027F7FC0095102FA8
:10142000B801A7010E94C3098C01C6010E94EB0804
:10143000080F191FC8011F910F91FF90EF90DF90C7
:10144000CF9008950E940B090895EF92FF920F9399
:101450001F937C010E940B098C01C7010E94EB08BD
:10146000080F191FC8011F910F91FF90EF90089569
:10147000CF93DF930E949D0A0E944706C7EED6E0F5
:101480000E9434062097E1F30E94E706F9CF1F92ED
:101490000F920FB60F9211242F933F938F939F9328
:1014A000AF93BF938091890390918A03A0918B039E
:1014B000B0918C0330918D030196A11DB11D232F96
:1014C0002D5F2D3720F02D570196A11DB11D2093C2
:1014D0008D038093890390938A03A0938B03B09329
:1014E0008C038091850390918603A0918703B0912E
:1014F00088030196A11DB11D8093850390938603F7
:10150000A0938703B0938803BF91AF919F918F9170
:101510003F912F910F900FBE0F901F9018958FB78E
:10152000F8942091890330918A0340918B03509164
:101530008C038FBFB901CA010895789484B5826085
:1015400084BD84B5816084BD85B5826085BD85B567
:10155000816085BDEEE6F0E0808181608083E1E816
:10156000F0E010828081826080838081816080834E
:10157000E0E8F0E0808181608083E1EBF0E0808151
:1015800084608083E0EBF0E0808181608083EAE723
:10159000F0E08081846080838081826080838081AC
:1015A000816080838081806880831092C10008956B
:1015B000982F8E3008F09E5097708091EC018295A4
:1015C000880F880F807C892B80937C0080917A0023
:1015D000806480937A0080917A0086FDFCCF209110
:1015E000780040917900942F80E030E0282B392B4F
:1015F000C9010895482F50E0CA0186569F4FFC014B
:1016000024914A575F4FFA0184918823C1F0E82F53
:10161000F0E0EE0FFF1FE859FF4FA591B49166234C
:1016200041F49FB7F8948C91209582238C939FBFAF
:1016300008959FB7F8948C91822B8C939FBF089547
:10164000482F50E0CA0182559F4FFC012491CA01E6
:1016500086569F4FFC0194914A575F4FFA0134918F
:10166000332309F440C0222351F1233071F0243098
:1016700028F42130A1F0223011F514C02630B1F049
:101680002730C1F02430D9F404C0809180008F77D6
:1016900003C0809180008F7D8093800010C084B54E
:1016A0008F7702C084B58F7D84BD09C08091B00062
:1016B0008F7703C08091B0008F7D8093B000E32FBF
:1016C000F0E0EE0FFF1FEE58FF4FA591B4912FB73A
:1016D000F894662321F48C919095892302C08C9113
:1016E000892B8C932FBF0895629FD001739FF001C7
:1016F000829FE00DF11D649FE00DF11D929FF00DA2
:10170000839FF00D749FF00D659FF00D9927729FD8
:10171000B00DE11DF91F639FB00DE11DF91FBD0163
:10172000CF011124089597FB092E07260AD077FDD3
:1017300004D02ED006D000201AF4709561957F4F0A
:101740000895F6F7909581959F4F0895A1E21A2E7E
:10175000AA1BBB1BFD010DC0AA1FBB1FEE1FFF1F55
:10176000A217B307E407F50720F0A21BB30BE40BA5
:10177000F50B661F771F881F991F1A9469F76095EC
:101780007095809590959B01AC01BD01CF010895A6
:10179000AA1BBB1B51E107C0AA1FBB1FA617B70797
:1017A00010F0A61BB70B881F991F5A95A9F78095B3
:1017B0009095BC01CD010895EE0FFF1F0590F491A7
:0817C000E02D0994F894FFCF1D
:1017C800457865637574696F6E20286D53293A20D2
:1017D800004C6F6F70733A20002A2A2A2A2A205256
:1017E800656C656173652049324320427573202A10
:1017F8002A2A2A2A005278200052712000496C6C4B
:101808006567616C20416464726573732000496E7A
:1018180069745F4E585449494300536572766F3A6C
:101828004D6973736564204672616D6520557064F7
:1018380061746500536572766F20333A20005365F2
:1018480072766F20323A2000536572766F20313AF3
:101858002000536572766F20303A2000496E697413
:101868005F536572766F4F757470757400004172BE
:10187800647552434A20556E6976657273616C20AF
:10188800496E746572666163650056312E303900A1
:101898004C6F61642053657474696E67730053619B
:1018A80076652053657474696E6773000156312E2E
:1018B800303000000044495944726F6E65417264CB
:1018C8007552434A000000000000000000000000BC
:1018D8000000000000000000000000000000000000
:1018E80000000000000000000000000000000000F0
:0E18F800003508C108C907FA07DA07230800FF
:00000001FF
