:100000000C942A000C9447000C9447000C94470071
:100010000C9447000C9447000C9447000C94470044
:100020000C9447000C9447000C9447000C94470034
:100030000C9447000C9447000C9447000C94470024
:100040000C945A000C9447000C9447000C94470001
:100050000C94470011241FBECFE5D4E0DEBFCDBF16
:1000600010E0A0E6B0E0EEEBF1E002C005900D92EA
:10007000A036B107D9F710E0A0E6B0E001C01D92AC
:10008000A936B107E1F70E944B000C94DD000C94F7
:10009000000008950895CF93DF930E94A2000E946C
:1000A0004900C0E0D0E00E944A002097E1F30E949E
:1000B0000000F9CF1F920F920FB60F9211242F93C9
:1000C0003F938F939F93AF93BF93809164009091E0
:1000D0006500A0916600B0916700309168000196BC
:1000E000A11DB11D232F2D5F2D3720F02D57019617
:1000F000A11DB11D2093680080936400909365005A
:10010000A0936600B09367008091600090916100B9
:10011000A0916200B09163000196A11DB11D809372
:10012000600090936100A0936200B0936300BF9160
:10013000AF919F918F913F912F910F900FBE0F9094
:100140001F901895789484B5826084BD84B58160D1
:1001500084BD85B5826085BD85B5816085BDEEE6CF
:10016000F0E0808181608083E1E8F0E010828081AE
:1001700082608083808181608083E0E8F0E080811C
:1001800081608083E1EBF0E0808184608083E0EB3C
:10019000F0E0808181608083EAE7F0E08081846024
:1001A0008083808182608083808181608083808180
:0E01B000806880831092C1000895F894FFCFFC
:00000001FF
